S02700004D696B726F636F6E74726F6C6C65725F53656E6454656D70657261747572652E7372656340
S113000012C019C018C017C016C015C014C013C040
S113001012C011C010C00FC00EC00DC00CC00BC068
S11300200AC009C008C011241FBECFE5D4E0DEBF5A
S1130030CDBF35D0B9C0E4CF84EA86BF06B607FE8B
S1130040FDCF81B1887F089581E983B984E886BFB3
S113005006B607FEFDCF81B1887F089582E083B99B
S113006084E886BF06B607FEFDCF81B1887F089578
S113007083B984E886BF06B607FEFDCF81B1887FC9
S1130080089584EC86BF06B607FEFDCF83B10895BC
S113009084E886BF06B607FEFDCF83B108958AE0E3
S11300A080B911B881B38C6181BB46D00F2EF4E9BD
S11300B0FF2EF02DD0E1C0DF089709F0929ACEDF31
S11300C0489709F0929A80E090E0D2DF889709F08F
S11300D0929AB2DF409709F0929AB6DF8034910584
S11300E009F0929ACEDF8C01D3DFC82FF6BEC80187
S11300F099272DD0CC233CF48EE290E024D085E3E4
S113010090E021D006C08EE290E01DD080E390E024
S11301101AD08DE090E017D08AE090E014D02FEF51
S11301208FE39BE0215080409040E1F700C0000045
S113013082B38D2782BBBFCF87E189B988E18AB9B1
S113014086E880BD08955D9BFECF8CB90895CF935A
S1130150DF93D82F89E2D89F812D112482958F7047
S1130160805DF1DF9DECD99FC12D1124C695C69504
S1130170C695C99F912D1124969596959695990F9C
S1130180892F880F880F980F8C2F891B805DDBDFE8
S1130190CC0F8C2F880F880FC80F8D2F8C1B805D80
S10F01A0D2DFDF91CF910895F894FFCFD7
S9030000FC
